{
  "contractName": "Healthcare",
  "abi": [
    {
      "inputs": [],
      "stateMutability": "nonpayable",
      "type": "constructor"
    },
    {
      "anonymous": false,
      "inputs": [
        {
          "indexed": false,
          "internalType": "address",
          "name": "doctor",
          "type": "address"
        }
      ],
      "name": "DoctorRegistered",
      "type": "event"
    },
    {
      "anonymous": false,
      "inputs": [
        {
          "indexed": false,
          "internalType": "address",
          "name": "medical",
          "type": "address"
        }
      ],
      "name": "MedicalRegistered",
      "type": "event"
    },
    {
      "anonymous": false,
      "inputs": [
        {
          "indexed": false,
          "internalType": "string",
          "name": "patientId",
          "type": "string"
        },
        {
          "indexed": false,
          "internalType": "string",
          "name": "name",
          "type": "string"
        },
        {
          "indexed": false,
          "internalType": "uint256",
          "name": "age",
          "type": "uint256"
        },
        {
          "indexed": false,
          "internalType": "string",
          "name": "gender",
          "type": "string"
        },
        {
          "indexed": false,
          "internalType": "string",
          "name": "disease",
          "type": "string"
        }
      ],
      "name": "PatientAdded",
      "type": "event"
    },
    {
      "anonymous": false,
      "inputs": [
        {
          "indexed": false,
          "internalType": "string",
          "name": "patientId",
          "type": "string"
        },
        {
          "indexed": false,
          "internalType": "string",
          "name": "prescription",
          "type": "string"
        }
      ],
      "name": "PrescriptionUpdated",
      "type": "event"
    },
    {
      "inputs": [],
      "name": "admin",
      "outputs": [
        {
          "internalType": "address",
          "name": "",
          "type": "address"
        }
      ],
      "stateMutability": "view",
      "type": "function",
      "constant": true
    },
    {
      "inputs": [
        {
          "internalType": "address",
          "name": "",
          "type": "address"
        }
      ],
      "name": "userRoles",
      "outputs": [
        {
          "internalType": "uint256",
          "name": "",
          "type": "uint256"
        }
      ],
      "stateMutability": "view",
      "type": "function",
      "constant": true
    },
    {
      "inputs": [],
      "name": "registerAsDoctor",
      "outputs": [],
      "stateMutability": "nonpayable",
      "type": "function"
    },
    {
      "inputs": [
        {
          "internalType": "string",
          "name": "_patientId",
          "type": "string"
        },
        {
          "internalType": "string",
          "name": "_name",
          "type": "string"
        },
        {
          "internalType": "uint256",
          "name": "_age",
          "type": "uint256"
        },
        {
          "internalType": "string",
          "name": "_gender",
          "type": "string"
        },
        {
          "internalType": "string",
          "name": "_disease",
          "type": "string"
        },
        {
          "internalType": "address",
          "name": "_patientAddress",
          "type": "address"
        }
      ],
      "name": "addPatientData",
      "outputs": [],
      "stateMutability": "nonpayable",
      "type": "function"
    },
    {
      "inputs": [
        {
          "internalType": "string",
          "name": "_patientId",
          "type": "string"
        },
        {
          "internalType": "string",
          "name": "_prescription",
          "type": "string"
        }
      ],
      "name": "updatePrescription",
      "outputs": [],
      "stateMutability": "nonpayable",
      "type": "function"
    },
    {
      "inputs": [
        {
          "internalType": "string",
          "name": "_patientId",
          "type": "string"
        }
      ],
      "name": "getPatientData",
      "outputs": [
        {
          "internalType": "string",
          "name": "",
          "type": "string"
        },
        {
          "internalType": "uint256",
          "name": "",
          "type": "uint256"
        },
        {
          "internalType": "string",
          "name": "",
          "type": "string"
        },
        {
          "internalType": "string",
          "name": "",
          "type": "string"
        },
        {
          "internalType": "string",
          "name": "",
          "type": "string"
        }
      ],
      "stateMutability": "view",
      "type": "function",
      "constant": true
    },
    {
      "inputs": [],
      "name": "registerAsMedical",
      "outputs": [],
      "stateMutability": "nonpayable",
      "type": "function"
    }
  ],
  "bytecode": "0x608060405234801561001057600080fd5b50336000806101000a81548173ffffffffffffffffffffffffffffffffffffffff021916908373ffffffffffffffffffffffffffffffffffffffff16021790555060018060008060009054906101000a900473ffffffffffffffffffffffffffffffffffffffff1673ffffffffffffffffffffffffffffffffffffffff1673ffffffffffffffffffffffffffffffffffffffff16815260200190815260200160002081905550611701806100c56000396000f3fe608060405234801561001057600080fd5b506004361061007d5760003560e01c8063d7d741371161005b578063d7d74137146100d8578063d83b1615146100e2578063dfbb8fda146100fe578063f851a440146101325761007d565b80631ee350e3146100825780636ba7fe7f1461009e57806374d5e100146100a8575b600080fd5b61009c60048036038101906100979190610d85565b610150565b005b6100a66103ae565b005b6100c260048036038101906100bd9190610e82565b6104ad565b6040516100cf9190610ebe565b60405180910390f35b6100e06104c5565b005b6100fc60048036038101906100f79190610ed9565b6105c5565b005b61011860048036038101906101139190610f51565b610720565b604051610129959493929190611019565b60405180910390f35b61013a610b73565b6040516101479190611097565b60405180910390f35b60018060003373ffffffffffffffffffffffffffffffffffffffff1673ffffffffffffffffffffffffffffffffffffffff16815260200190815260200160002054146101d1576040517f08c379a00000000000000000000000000000000000000000000000000000000081526004016101c890611124565b60405180910390fd5b6002866040516101e19190611180565b908152602001604051809103902060050160009054906101000a900460ff1615610240576040517f08c379a0000000000000000000000000000000000000000000000000000000008152600401610237906111e3565b60405180910390fd5b6040518060c001604052808681526020018581526020018481526020018381526020016040518060200160405280600081525081526020016001151581525060028760405161028f9190611180565b908152602001604051809103902060008201518160000190816102b2919061140f565b506020820151816001015560408201518160020190816102d2919061140f565b5060608201518160030190816102e8919061140f565b5060808201518160040190816102fe919061140f565b5060a08201518160050160006101000a81548160ff0219169083151502179055509050506002600160008373ffffffffffffffffffffffffffffffffffffffff1673ffffffffffffffffffffffffffffffffffffffff168152602001908152602001600020819055507f8638959d622fb039836da65b493dcc1c6619b4de1a72765620aedbcf9257b6f6868686868660405161039e9594939291906114e1565b60405180910390a1505050505050565b6000600160003373ffffffffffffffffffffffffffffffffffffffff1673ffffffffffffffffffffffffffffffffffffffff1681526020019081526020016000205414610430576040517f08c379a00000000000000000000000000000000000000000000000000000000081526004016104279061159c565b60405180910390fd5b60018060003373ffffffffffffffffffffffffffffffffffffffff1673ffffffffffffffffffffffffffffffffffffffff168152602001908152602001600020819055507f2dc8105a7545248d0e354c4c6b02fb583071cc719fb4bef1ca74d72d475570bc336040516104a39190611097565b60405180910390a1565b60016020528060005260406000206000915090505481565b6000600160003373ffffffffffffffffffffffffffffffffffffffff1673ffffffffffffffffffffffffffffffffffffffff1681526020019081526020016000205414610547576040517f08c379a000000000000000000000000000000000000000000000000000000000815260040161053e9061159c565b60405180910390fd5b6003600160003373ffffffffffffffffffffffffffffffffffffffff1673ffffffffffffffffffffffffffffffffffffffff168152602001908152602001600020819055507f0f15b1d4d917528427594669a3ea2522c25ce8a3f1f22fbf003a7e1526cc1b75336040516105bb9190611097565b60405180910390a1565b60018060003373ffffffffffffffffffffffffffffffffffffffff1673ffffffffffffffffffffffffffffffffffffffff1681526020019081526020016000205414610646576040517f08c379a000000000000000000000000000000000000000000000000000000000815260040161063d90611124565b60405180910390fd5b6002826040516106569190611180565b908152602001604051809103902060050160009054906101000a900460ff166106b4576040517f08c379a00000000000000000000000000000000000000000000000000000000081526004016106ab90611608565b60405180910390fd5b806002836040516106c59190611180565b908152602001604051809103902060040190816106e2919061140f565b507f3bf8f76513519235ae1348ae05f85a8b32668986b4fbe4b27baf2e0b62830fa98282604051610714929190611628565b60405180910390a15050565b60606000606080606060018060003373ffffffffffffffffffffffffffffffffffffffff1673ffffffffffffffffffffffffffffffffffffffff1681526020019081526020016000205414806107b557506002600160003373ffffffffffffffffffffffffffffffffffffffff1673ffffffffffffffffffffffffffffffffffffffff16815260200190815260200160002054145b806107ff57506003600160003373ffffffffffffffffffffffffffffffffffffffff1673ffffffffffffffffffffffffffffffffffffffff16815260200190815260200160002054145b61083e576040517f08c379a0000000000000000000000000000000000000000000000000000000008152600401610835906116ab565b60405180910390fd5b60028660405161084e9190611180565b908152602001604051809103902060050160009054906101000a900460ff166108ac576040517f08c379a00000000000000000000000000000000000000000000000000000000081526004016108a390611608565b60405180910390fd5b60006002876040516108be9190611180565b90815260200160405180910390206040518060c00160405290816000820180546108e790611232565b80601f016020809104026020016040519081016040528092919081815260200182805461091390611232565b80156109605780601f1061093557610100808354040283529160200191610960565b820191906000526020600020905b81548152906001019060200180831161094357829003601f168201915b505050505081526020016001820154815260200160028201805461098390611232565b80601f01602080910402602001604051908101604052809291908181526020018280546109af90611232565b80156109fc5780601f106109d1576101008083540402835291602001916109fc565b820191906000526020600020905b8154815290600101906020018083116109df57829003601f168201915b50505050508152602001600382018054610a1590611232565b80601f0160208091040260200160405190810160405280929190818152602001828054610a4190611232565b8015610a8e5780601f10610a6357610100808354040283529160200191610a8e565b820191906000526020600020905b815481529060010190602001808311610a7157829003601f168201915b50505050508152602001600482018054610aa790611232565b80601f0160208091040260200160405190810160405280929190818152602001828054610ad390611232565b8015610b205780601f10610af557610100808354040283529160200191610b20565b820191906000526020600020905b815481529060010190602001808311610b0357829003601f168201915b505050505081526020016005820160009054906101000a900460ff161515151581525050905080600001518160200151826040015183606001518460800151955095509550955095505091939590929450565b60008054906101000a900473ffffffffffffffffffffffffffffffffffffffff1681565b6000604051905090565b600080fd5b600080fd5b600080fd5b600080fd5b6000601f19601f8301169050919050565b7f4e487b7100000000000000000000000000000000000000000000000000000000600052604160045260246000fd5b610bfe82610bb5565b810181811067ffffffffffffffff82111715610c1d57610c1c610bc6565b5b80604052505050565b6000610c30610b97565b9050610c3c8282610bf5565b919050565b600067ffffffffffffffff821115610c5c57610c5b610bc6565b5b610c6582610bb5565b9050602081019050919050565b82818337600083830152505050565b6000610c94610c8f84610c41565b610c26565b905082815260208101848484011115610cb057610caf610bb0565b5b610cbb848285610c72565b509392505050565b600082601f830112610cd857610cd7610bab565b5b8135610ce8848260208601610c81565b91505092915050565b6000819050919050565b610d0481610cf1565b8114610d0f57600080fd5b50565b600081359050610d2181610cfb565b92915050565b600073ffffffffffffffffffffffffffffffffffffffff82169050919050565b6000610d5282610d27565b9050919050565b610d6281610d47565b8114610d6d57600080fd5b50565b600081359050610d7f81610d59565b92915050565b60008060008060008060c08789031215610da257610da1610ba1565b5b600087013567ffffffffffffffff811115610dc057610dbf610ba6565b5b610dcc89828a01610cc3565b965050602087013567ffffffffffffffff811115610ded57610dec610ba6565b5b610df989828a01610cc3565b9550506040610e0a89828a01610d12565b945050606087013567ffffffffffffffff811115610e2b57610e2a610ba6565b5b610e3789828a01610cc3565b935050608087013567ffffffffffffffff811115610e5857610e57610ba6565b5b610e6489828a01610cc3565b92505060a0610e7589828a01610d70565b9150509295509295509295565b600060208284031215610e9857610e97610ba1565b5b6000610ea684828501610d70565b91505092915050565b610eb881610cf1565b82525050565b6000602082019050610ed36000830184610eaf565b92915050565b60008060408385031215610ef057610eef610ba1565b5b600083013567ffffffffffffffff811115610f0e57610f0d610ba6565b5b610f1a85828601610cc3565b925050602083013567ffffffffffffffff811115610f3b57610f3a610ba6565b5b610f4785828601610cc3565b9150509250929050565b600060208284031215610f6757610f66610ba1565b5b600082013567ffffffffffffffff811115610f8557610f84610ba6565b5b610f9184828501610cc3565b91505092915050565b600081519050919050565b600082825260208201905092915050565b60005b83811015610fd4578082015181840152602081019050610fb9565b60008484015250505050565b6000610feb82610f9a565b610ff58185610fa5565b9350611005818560208601610fb6565b61100e81610bb5565b840191505092915050565b600060a08201905081810360008301526110338188610fe0565b90506110426020830187610eaf565b81810360408301526110548186610fe0565b905081810360608301526110688185610fe0565b9050818103608083015261107c8184610fe0565b90509695505050505050565b61109181610d47565b82525050565b60006020820190506110ac6000830184611088565b92915050565b7f4f6e6c7920646f63746f72732063616e20706572666f726d207468697320616360008201527f74696f6e00000000000000000000000000000000000000000000000000000000602082015250565b600061110e602483610fa5565b9150611119826110b2565b604082019050919050565b6000602082019050818103600083015261113d81611101565b9050919050565b600081905092915050565b600061115a82610f9a565b6111648185611144565b9350611174818560208601610fb6565b80840191505092915050565b600061118c828461114f565b915081905092915050565b7f50617469656e7420616c72656164792065786973747300000000000000000000600082015250565b60006111cd601683610fa5565b91506111d882611197565b602082019050919050565b600060208201905081810360008301526111fc816111c0565b9050919050565b7f4e487b7100000000000000000000000000000000000000000000000000000000600052602260045260246000fd5b6000600282049050600182168061124a57607f821691505b60208210810361125d5761125c611203565b5b50919050565b60008190508160005260206000209050919050565b60006020601f8301049050919050565b600082821b905092915050565b6000600883026112c57fffffffffffffffffffffffffffffffffffffffffffffffffffffffffffffffff82611288565b6112cf8683611288565b95508019841693508086168417925050509392505050565b6000819050919050565b600061130c61130761130284610cf1565b6112e7565b610cf1565b9050919050565b6000819050919050565b611326836112f1565b61133a61133282611313565b848454611295565b825550505050565b600090565b61134f611342565b61135a81848461131d565b505050565b5b8181101561137e57611373600082611347565b600181019050611360565b5050565b601f8211156113c35761139481611263565b61139d84611278565b810160208510156113ac578190505b6113c06113b885611278565b83018261135f565b50505b505050565b600082821c905092915050565b60006113e6600019846008026113c8565b1980831691505092915050565b60006113ff83836113d5565b9150826002028217905092915050565b61141882610f9a565b67ffffffffffffffff81111561143157611430610bc6565b5b61143b8254611232565b611446828285611382565b600060209050601f8311600181146114795760008415611467578287015190505b61147185826113f3565b8655506114d9565b601f19841661148786611263565b60005b828110156114af5784890151825560018201915060208501945060208101905061148a565b868310156114cc57848901516114c8601f8916826113d5565b8355505b6001600288020188555050505b505050505050565b600060a08201905081810360008301526114fb8188610fe0565b9050818103602083015261150f8187610fe0565b905061151e6040830186610eaf565b81810360608301526115308185610fe0565b905081810360808301526115448184610fe0565b90509695505050505050565b7f416c726561647920726567697374657265640000000000000000000000000000600082015250565b6000611586601283610fa5565b915061159182611550565b602082019050919050565b600060208201905081810360008301526115b581611579565b9050919050565b7f50617469656e74206e6f7420666f756e64000000000000000000000000000000600082015250565b60006115f2601183610fa5565b91506115fd826115bc565b602082019050919050565b60006020820190508181036000830152611621816115e5565b9050919050565b600060408201905081810360008301526116428185610fe0565b905081810360208301526116568184610fe0565b90509392505050565b7f4163636573732064656e69656421000000000000000000000000000000000000600082015250565b6000611695600e83610fa5565b91506116a08261165f565b602082019050919050565b600060208201905081810360008301526116c481611688565b905091905056fea2646970667358221220aa52d6a9ed57ff9fac3f586cbac69700cbdc62bc4179936be0b3628b736500b664736f6c63430008130033",
  "immutableReferences": {},
  "source": "// SPDX-License-Identifier: MIT\r\npragma solidity ^0.8.19;\r\n\r\ncontract Healthcare {\r\n    address public admin;\r\n\r\n    enum Role { NONE, DOCTOR, PATIENT, MEDICAL }\r\n\r\n    struct Patient {\r\n        string name;\r\n        uint age;\r\n        string gender;\r\n        string disease;\r\n        string prescription;\r\n        bool exists;\r\n    }\r\n\r\n    mapping(address => uint) public userRoles; // 1 = Doctor, 2 = Patient, 3 = Medical\r\n    mapping(string => Patient) private patients; // Store patient data\r\n\r\n    event DoctorRegistered(address doctor);\r\n    event PatientAdded(string patientId, string name, uint age, string gender, string disease);\r\n    event PrescriptionUpdated(string patientId, string prescription);\r\n    event MedicalRegistered(address medical);\r\n\r\n    modifier onlyAdmin() {\r\n        require(msg.sender == admin, \"Only admin can perform this action\");\r\n        _;\r\n    }\r\n\r\n    modifier onlyDoctor() {\r\n        require(userRoles[msg.sender] == 1, \"Only doctors can perform this action\");\r\n        _;\r\n    }\r\n\r\n    modifier onlyAuthorized() {\r\n        require(\r\n            userRoles[msg.sender] == 1 || \r\n            userRoles[msg.sender] == 2 || \r\n            userRoles[msg.sender] == 3,\r\n            \"Access denied!\"\r\n        );\r\n        _;\r\n    }\r\n\r\n    constructor() {\r\n        admin = msg.sender;\r\n        userRoles[admin] = 1; // Admin is also a doctor\r\n    }\r\n\r\n    //  Doctors can register themselves\r\n    function registerAsDoctor() public {\r\n        require(userRoles[msg.sender] == 0, \"Already registered\");\r\n        userRoles[msg.sender] = 1; // Assign role = Doctor (1)\r\n        emit DoctorRegistered(msg.sender);\r\n    }\r\n\r\n    //  Doctors can add patients (auto-assign patient role)\r\n    function addPatientData(\r\n        string memory _patientId,\r\n        string memory _name,\r\n        uint _age,\r\n        string memory _gender,\r\n        string memory _disease,\r\n        address _patientAddress\r\n    ) public onlyDoctor {\r\n        require(!patients[_patientId].exists, \"Patient already exists\");\r\n\r\n        patients[_patientId] = Patient({\r\n            name: _name,\r\n            age: _age,\r\n            gender: _gender,\r\n            disease: _disease,\r\n            prescription: \"\",\r\n            exists: true\r\n        });\r\n\r\n        userRoles[_patientAddress] = 2; // Assign role = Patient (2)\r\n\r\n        emit PatientAdded(_patientId, _name, _age, _gender, _disease);\r\n    }\r\n\r\n    //  Only doctors can update prescriptions\r\n    function updatePrescription(string memory _patientId, string memory _prescription) public onlyDoctor {\r\n        require(patients[_patientId].exists, \"Patient not found\");\r\n\r\n        patients[_patientId].prescription = _prescription;\r\n\r\n        emit PrescriptionUpdated(_patientId, _prescription);\r\n    }\r\n\r\n    //  Doctors, patients & medical staff can view patient data\r\n    function getPatientData(string memory _patientId)\r\n        public\r\n        view\r\n        onlyAuthorized\r\n        returns (string memory, uint, string memory, string memory, string memory)\r\n    {\r\n        require(patients[_patientId].exists, \"Patient not found\");\r\n\r\n        Patient memory p = patients[_patientId];\r\n        return (p.name, p.age, p.gender, p.disease, p.prescription);\r\n    }\r\n\r\n    //  Medical personnel can register themselves\r\n    function registerAsMedical() public {\r\n        require(userRoles[msg.sender] == 0, \"Already registered\");\r\n        userRoles[msg.sender] = 3; // Assign role = Medical (3)\r\n        emit MedicalRegistered(msg.sender);\r\n    }\r\n}\r\n",
  "sourcePath": "C:\\Users\\kello\\Downloads\\capstone 2\\Blockchain\\contracts\\Healthcare.sol",
  "compiler": {
    "name": "solc",
    "version": "0.8.19+commit.7dd6d404.Emscripten.clang"
  },
  "schemaVersion": "3.4.16",
  "updatedAt": "2025-04-02T18:52:22.877Z",
  "networkType": "ethereum",
  "devdoc": {
    "kind": "dev",
    "methods": {},
    "version": 1
  },
  "userdoc": {
    "kind": "user",
    "methods": {},
    "version": 1
  }
}